:020000040800F2
:100000000000022019B10008C9A40008D5A4000806
:10001000DBA40008E1A40008E7A400080000000039
:10002000000000000000000000000000EDA4000837
:10003000F9A400080000000005A5000811A50008AB
:1000400069B1000869B1000869B1000869B1000828
:1000500069B1000869B1000869B1000869B1000818
:1000600069B1000869B1000869B1000869B1000808
:1000700069B1000869B1000869B1000869B10008F8
:1000800069B1000869B1000869B1000869B10008E8
:1000900069B1000869B1000869B1000869B10008D8
:1000A00021A5000869B1000835A5000869B100085C
:1000B00049A5000869B100085DA5000869B10008FC
:1000C00069B1000869B1000869B1000869B10008A8
:1000D00069B1000871A5000869B1000869B100089C
:1000E00069B1000869B100080000000085A500089A
:1000F00069B1000899A5000869B1000869B1000854
:1001000069B1000869B1000869B1000869B1000867
:1001100069B1000869B10008ADA50008C1A50008D3
:1001200069B1000869B1000869B1000869B1000847
:1001300069B1000869B1000869B1000869B1000837
:1001400000000000000000000000000000000000AF
:1001500069B1000869B1000869B1000869B1000817
:1001600069B1000869B1000869B1000869B1000807
:1001700069B1000869B1000869B100080000000019
:1001800069B1000869B1000869B1000869B10008E7
:1001900069B1000869B1000869B1000869B10008D7
:1001A00069B1000869B1000869B1000869B10008C7
:1001B00069B1000869B1000869B1000869B10008B7
:1001C00069B1000869B1000869B1000869B10008A7
:1001D00069B1000869B1000869B1000869B1000897
:1001E00069B1000869B1000869B1000869B1000887
:1001F00069B1000869B1000869B1000869B1000877
:1002000069B1000869B1000869B1000869B1000866
:1002100069B1000869B1000869B1000869B1000856
:1002200069B1000869B1000869B100080000000068
:1002300069B1000869B100080000000069B1000858
:1002400069B1000869B1000869B1000869B1000826
:1002500069B1000869B1000869B1000869B1000816
:1002600069B1000869B1000869B1000869B1000806
:1002700069B1000869B1000869B100080000000018
:1002800069B100080000000069B10008000000002A
:080290000000000069B1000844
:1002980010B5054C237833B9044B13B10448AFF3B8
:1002A80000800123237010BD3002002000000000F0
:1002B80000CC000808B5034B1BB103490348AFF352
:1002C800008008BD000000003402002000CC0008B7
:1002D80081F0004102E000BF83F0004330B54FEAEF
:1002E80041044FEA430594EA050F08BF90EA020F5C
:1002F8001FBF54EA000C55EA020C7FEA645C7FEAEF
:10030800655C00F0E2804FEA5454D4EB5555B8BF11
:100318006D420CDD2C4480EA020281EA030382EA82
:10032800000083EA010180EA020281EA0303362D14
:1003380088BF30BD11F0004F4FEA01314FF4801CE7
:100348004CEA113102D0404261EB410113F0004FF9
:100358004FEA03334CEA133302D0524263EB4303B0
:1003680094EA050F00F0A780A4F10104D5F1200E4E
:100378000DDB02FA0EFC22FA05F2801841F10001A9
:1003880003FA0EF2801843FA05F359410EE0A5F17D
:1003980020050EF1200E012A03FA0EFC28BF4CF0AE
:1003A800020C43FA05F3C01851EBE37101F0004564
:1003B80007D54FF0000EDCF1000C7EEB00006EEB71
:1003C8000101B1F5801F1BD3B1F5001F0CD34908FB
:1003D8005FEA30004FEA3C0C04F101044FEA445252
:1003E80012F5800F80F09A80BCF1004F08BF5FEAD9
:1003F800500C50F1000041EB045141EA050130BDB9
:100408005FEA4C0C404141EB010111F4801FA4F15B
:100418000104E9D191F0000F04BF01460020B1FAB0
:1004280081F308BF2033A3F10B03B3F120020CDAE8
:100438000C3208DD02F1140CC2F10C0201FA0CF0C6
:1004480021FA02F10CE002F11402D8BFC2F1200C2B
:1004580001FA02F120FA0CFCDCBF41EA0C019040E1
:10046800E41AA2BF01EB0451294330BD6FEA04042A
:100478001F3C1CDA0C340EDC04F11404C4F1200215
:1004880020FA04F001FA02F340EA030021FA04F327
:1004980045EA030130BDC4F10C04C4F1200220FA7E
:1004A80002F001FA04F340EA0300294630BD21FABC
:1004B80004F0294630BD94F0000F83F4801306BF82
:1004C80081F480110134013D4EE77FEA645C18BF76
:1004D8007FEA655C29D094EA050F08BF90EA020F0D
:1004E80005D054EA000C04BF1946104630BD91EA05
:1004F800030F1EBF0021002030BD5FEA545C05D108
:100508004000494128BF41F0004130BD14F5800446
:100518003CBF01F5801130BD01F0004545F0FE41BA
:1005280041F470014FF0000030BD7FEA645C1ABFEF
:10053800194610467FEA655C1CBF0B46024650EA26
:10054800013406BF52EA033591EA030F41F4002152
:1005580030BD00BF90F0000F04BF0021704730B5D8
:100568004FF4806404F132044FF000054FF00001AD
:1005780050E700BF90F0000F04BF0021704730B56E
:100588004FF4806404F1320410F0004548BF404243
:100598004FF000013EE700BF42004FEAE2014FEA98
:1005A80031014FEA02701FBF12F07F4393F07F4F73
:1005B80081F06051704732F07F4208BF704793F076
:1005C8007F4F04BF41F40021704730B54FF4607489
:1005D80001F0004521F000411CE700BF50EA01028C
:1005E80008BF704730B54FF000050AE050EA010235
:1005F80008BF704730B511F0004502D5404261EBA5
:1006080041014FF4806404F132045FEA915C3FF4E5
:10061800D8AE4FF003025FEADC0C18BF03325FEA82
:10062800DC0C18BF033202EBDC02C2F1200300FA33
:1006380003FC20FA02F001FA03FE40EA0E0021FA58
:1006480002F11444BDE600BF70B54FF0FF0C4CF446
:10065800E06C1CEA11541DBF1CEA135594EA0C0FF8
:1006680095EA0C0F00F0DEF82C4481EA030621EA33
:100678004C5123EA4C5350EA013518BF52EA03356E
:1006880041F4801143F4801338D0A0FB02CE4FF020
:100698000005E1FB02E506F00042E0FB03E54FF050
:1006A8000006E1FB03569CF0000F18BF4EF0010E48
:1006B800A4F1FF04B6F5007F64F5407404D25FEA44
:1006C8004E0E6D4146EB060642EAC62141EA5551F7
:1006D8004FEAC52040EA5E504FEACE2EB4F1FD0C39
:1006E80088BFBCF5E06F1ED8BEF1004F08BF5FEAB7
:1006F800500E50F1000041EB045170BD06F0004669
:1007080046EA010140EA020081EA0301B4EB5C0415
:10071800C2BFD4EB0C0541EA045170BD41F480110D
:100728004FF0000E013C00F3AB8014F1360FDEBF32
:10073800002001F0004170BDC4F10004203C35DA0E
:100748000C341BDC04F11404C4F1200500FA05F391
:1007580020FA04F001FA05F240EA020001F0004232
:1007680021F0004110EBD37021FA04F642EB0601A8
:100778005EEA430E08BF20EAD37070BDC4F10C04D2
:10078800C4F1200500FA04F320FA05F001FA04F296
:1007980040EA020001F0004110EBD37041F1000182
:1007A8005EEA430E08BF20EAD37070BDC4F120058D
:1007B80000FA05F24EEA020E20FA04F301FA05F2F5
:1007C80043EA020321FA04F001F0004121FA04F29D
:1007D80020EA020000EBD3705EEA430E08BF20EA6D
:1007E800D37070BD94F0000F0FD101F000464000A7
:1007F80041EB010111F4801F08BF013CF7D041EA29
:10080800060195F0000F18BF704703F0004652002C
:1008180043EB030313F4801F08BF013DF7D043EAFD
:100828000603704794EA0C0F0CEA135518BF95EAB3
:100838000C0F0CD050EA410618BF52EA4306D1D13A
:1008480081EA030101F000414FF0000070BD50EA59
:10085800410606BF1046194652EA430619D094EAE3
:100868000C0F02D150EA013613D195EA0C0F05D1CD
:1008780052EA03361CBF104619460AD181EA030121
:1008880001F0004141F0FE4141F470014FF00000D9
:1008980070BD41F0FE4141F4780170BD70B54FF074
:1008A800FF0C4CF4E06C1CEA11541DBF1CEA1355F4
:1008B80094EA0C0F95EA0C0F00F0A7F8A4EB0504D6
:1008C80081EA030E52EA03354FEA013100F08880CD
:1008D8004FEA03334FF0805545EA131343EA126396
:1008E8004FEA022245EA111545EA10654FEA00264B
:1008F8000EF000419D4208BF964244F1FD0404F504
:10090800407402D25B084FEA3202B61A65EB03055F
:100918005B084FEA32024FF480104FF4002CB6EB1C
:10092800020E75EB030E22BFB61A754640EA0C009C
:100938005B084FEA3202B6EB020E75EB030E22BFDC
:10094800B61A754640EA5C005B084FEA3202B6EB1D
:10095800020E75EB030E22BFB61A754640EA9C00DC
:100968005B084FEA3202B6EB020E75EB030E22BFAC
:10097800B61A754640EADC0055EA060E18D04FEA6A
:10098800051545EA16754FEA06164FEAC30343EA0A
:1009980052734FEAC2025FEA1C1CC0D111F4801FD7
:1009A8000BD141EA00014FF000004FF0004CB6E7D0
:1009B80011F4801F04BF01430020B4F1FD0C88BF6F
:1009C800BCF5E06F3FF6AFAEB5EB030C04BFB6EB7A
:1009D800020C5FEA500C50F1000041EB045170BD6D
:1009E8000EF0004E4EEA113114EB5C04C2BFD4EB9A
:1009F8000C0541EA045170BD41F480114FF0000E1E
:100A0800013C90E645EA060E8DE60CEA135594EA99
:100A18000C0F08BF95EA0C0F3FF43BAF94EA0C0F9C
:100A28000AD150EA01347FF434AF95EA0C0F7FF411
:100A380025AF104619462CE795EA0C0F06D152EA65
:100A480003353FF4FDAE1046194622E750EA410649
:100A580018BF52EA43067FF4C5AE50EA41047FF45A
:100A68000DAF52EA43057FF4EBAE12E74FF0FF3CBF
:100A780006E000BF4FF0010C02E000BF4FF0010C90
:100A88004DF804CD4FEA410C7FEA6C5C4FEA430C09
:100A980018BF7FEA6C5C1BD001B050EA410C0CBF58
:100AA80052EA430C91EA030F02BF90EA020F0020BA
:100AB800704710F1000F91EA030F58BF994208BF21
:100AC80090422CBFD8176FEAE37040F001007047DE
:100AD8004FEA410C7FEA6C5C02D150EA013C07D135
:100AE8004FEA430C7FEA6C5CD6D152EA033CD3D080
:100AF8005DF8040B704700BF8446104662468C467A
:100B08001946634600E000BF01B5FFF7B7FF0028AC
:100B180048BF10F1000F01BD4DF808EDFFF7F4FFD5
:100B28000CBF012000205DF808FB00BF4DF808ED60
:100B3800FFF7EAFF34BF012000205DF808FB00BF83
:100B48004DF808EDFFF7E0FF94BF012000205DF8A5
:100B580008FB00BF4DF808EDFFF7CEFF94BF01205A
:100B680000205DF808FB00BF4DF808EDFFF7C4FF53
:100B780034BF012000205DF808FB00BF4FEA4102A6
:100B880012F5001215D211D56FF47873B3EB6252D7
:100B980012D94FEAC12343F0004343EA505311F0FE
:100BA800004F23FA02F018BF404270474FF0000090
:100BB800704750EA013005D111F0004008BF6FF0CE
:100BC800004070474FF00000704700BF4FEA4102F5
:100BD800B2F1E04324BFB3F5001CDCF1FE5C0DD993
:100BE80001F0004C4FEAC0024CEA5070B2F1004FDD
:100BF80040EB830008BF20F00100704711F0804FE0
:100C080021D113F13872BCBF01F00040704741F4A4
:100C180080114FEA5252C2F11802C2F1200C10FAA8
:100C28000CF320FA02F018BF40F001004FEAC1238C
:100C38004FEAD32303FA0CFC40EA0C0023FA02F330
:100C48004FEA4303CCE77FEA625307D150EA013306
:100C58001EBF4FF0FE4040F44000704701F00040D6
:100C680040F0FE4040F40000704700BF80F00040B4
:100C780002E000BF81F0004142001FBF5FEA41036C
:100C880092EA030F7FEA226C7FEA236C6AD04FEA6C
:100C98001262D2EB1363C1BFD218414048404140B1
:100CA800B8BF5B42192B88BF704710F0004F40F463
:100CB800000020F07F4018BF404211F0004F41F47F
:100CC800000121F07F4118BF494292EA030F3FD04B
:100CD800A2F1010241FA03FC10EB0C00C3F120035E
:100CE80001FA03F100F0004302D5494260EB4000ED
:100CF800B0F5000F13D3B0F1807F06D340084FEA58
:100D0800310102F10102FE2A51D2B1F1004F40EB4C
:100D1800C25008BF20F0010040EA030070474900B4
:100D280040EB000010F4000FA2F10102EDD1B0FA7F
:100D380080FCACF1080CB2EB0C0200FA0CF0AABF74
:100D480000EBC25052421843BCBFD0401843704712
:100D580092F0000F81F4000106BF80F40000013218
:100D6800013BB5E74FEA41037FEA226C18BF7FEAEF
:100D7800236C21D092EA030F04D092F0000F08BF31
:100D88000846704790EA010F1CBF0020704712F018
:100D98007F4F04D1400028BF40F00040704712F157
:100DA80000723CBF00F50000704700F0004343F0BC
:100DB800FE4040F4000070477FEA226216BF0846F2
:100DC8007FEA23630146420206BF5FEA412390EAB5
:100DD800010F40F4800070474FF0000304E000BFAB
:100DE80010F0004348BF40425FEA000C08BF70475C
:100DF80043F0964301464FF000001CE050EA010220
:100E080008BF70474FF000030AE000BF50EA010234
:100E180008BF704711F0004302D5404261EB410121
:100E28005FEA010C02BF84460146002043F0B64346
:100E380008BFA3F18053A3F50003BCFA8CF2083A6B
:100E4800A3EBC25310DB01FA02FC634400FA02FC74
:100E5800C2F12002BCF1004F20FA02F243EB02007B
:100E680008BF20F00100704702F1200201FA02FCDD
:100E7800C2F1200250EA4C0021FA02F243EB0200D0
:100E880008BF20EADC7070474FF0FF0C1CEAD05214
:100E98001EBF1CEAD15392EA0C0F93EA0C0F6FD0D5
:100EA8001A4480EA010C400218BF5FEA41211ED0B3
:100EB8004FF0006343EA501043EA5111A0FB01319F
:100EC8000CF00040B1F5000F3EBF490041EAD37174
:100ED8005B0040EA010062F17F02FD2A1DD8B3F1F0
:100EE800004F40EBC25008BF20F00100704790F05F
:100EF800000F0CF0004C08BF49024CEA502040EAB1
:100F080051207F3AC2BFD2F1FF0340EAC250704776
:100F180040F400004FF00003013A5DDC12F1190FB4
:100F2800DCBF00F000407047C2F10002410021FA26
:100F380002F1C2F1200200FA02FC5FEA310040F13E
:100F4800000053EA4C0308BF20EADC70704792F0B7
:100F5800000F00F0004C02BF400010F4000F013AEF
:100F6800F9D040EA0C0093F0000F01F0004C02BFEA
:100F7800490011F4000F013BF9D041EA0C018FE759
:100F88000CEAD15392EA0C0F18BF93EA0C0F0AD05F
:100F980030F0004C18BF31F0004CD8D180EA010085
:100FA80000F00040704790F0000F17BF90F0004F1E
:100FB800084691F0000F91F0004F14D092EA0C0F00
:100FC80001D142020FD193EA0C0F03D14B0218BF93
:100FD800084608D180EA010000F0004040F0FE40D9
:100FE80040F40000704740F0FE4040F44000704775
:100FF8004FF0FF0C1CEAD0521EBF1CEAD15392EAF4
:101008000C0F93EA0C0F69D0A2EB030280EA010CE3
:1010180049024FEA402037D04FF0805343EA11117C
:1010280043EA10130CF000408B4238BF5B0042F1DA
:101038007D024FF4000C8B4224BF5B1A40EA0C007F
:10104800B3EB510F24BFA3EB510340EA5C00B3EBB1
:10105800910F24BFA3EB910340EA9C00B3EBD10F9F
:1010680024BFA3EBD10340EADC001B0118BF5FEAF1
:101078001C1CE0D1FD2A3FF650AF8B4240EBC2501A
:1010880008BF20F0010070470CF0004C4CEA5020DB
:101098007F32C2BFD2F1FF0340EAC250704740F42A
:1010A80000004FF00003013A37E792F0000F00F01C
:1010B800004C02BF400010F4000F013AF9D040EA9A
:1010C8000C0093F0000F01F0004C02BF490011F42E
:1010D800000F013BF9D041EA0C0195E70CEAD15326
:1010E80092EA0C0F08D142027FF47DAF93EA0C0F0D
:1010F8007FF470AF084676E793EA0C0F04D14B02F1
:101108003FF44CAF08466EE730F0004C18BF31F0A2
:10111800004CCAD130F000427FF45CAF31F000439C
:101128007FF43CAF5FE700BF42000ED2B2F1FE4F42
:101138000BD34FF09E03B3EB126209D44FEA00239E
:1011480043F0004323FA02F070474FF00000704765
:1011580012F1610F01D1420202D14FF0FF30704706
:101168004FF00000704700BF53B94AB9002908BFC3
:1011780000281CBF4FF0FF314FF0FF3000F072B96C
:10118800ADF1080C6DE904CE00F006F8DDF804E0D6
:10119800DDE9022304B070472DE9F047089E0446B4
:1011A8008846002B4BD18A42154667D9B2FA82F29B
:1011B8004AB1C2F1200701FA02F320FA07F7954075
:1011C80047EA030894404FEA154E230CB8FBFEF794
:1011D8001FFA85FC0EFB178843EA084307FB0CF14E
:1011E800994209D9EB1807F1FF3080F01B81994229
:1011F80040F21881023F2B445B1AA4B2B3FBFEF005
:101208000EFB103344EA034400FB0CFCA44509D947
:101218002C1900F1FF3380F00781A44540F20481C6
:1012280002382C4440EA0740A4EB0C0400271EB106
:10123800D4400023C6E900433946BDE8F0878B4215
:1012480009D9002E00F0EB800027C6E900013846D6
:101258003946BDE8F087B3FA83F7002F47D18B42B0
:1012680002D3824200F2FA80841A61EB0303012060
:101278009846002EE0D0C6E90048DDE702B9FFDE57
:10128800B2FA82F2002A40F08F80491B4FEA154ECD
:101298001FFA85F80127B1FBFEFC230C0EFB1C117D
:1012A80043EA014308FB0CF1994207D9EB180CF10A
:1012B800FF3002D2994200F2CD808446591AA3B277
:1012C800B1FBFEF00EFB101443EA044408FB00F8DF
:1012D800A04507D92C1900F1FF3302D2A04500F22E
:1012E800B6801846A4EB080440EA0C409FE7C7F113
:1012F800200CBB4022FA0CFE4EEA030E01FA07F45A
:1013080020FA0CF521FA0CF34FEA1E482543B3FBEB
:10131800F8F92C0C08FB19331FFA8EFA44EA034338
:1013280009FB0AF49C4202FA07F200FA07F10BD90A
:101338001EEB030309F1FF3080F087809C4240F2E6
:101348008480A9F1020973441B1BADB2B3FBF8F00A
:1013580008FB103345EA034400FB0AFAA24508D902
:101368001EEB040400F1FF336BD2A24569D90238A1
:10137800744440EA0940A0FB0289A4EB0A044C45E6
:10138800C2464B4654D351D0002E69D0B1EB0A0562
:1013980064EB030404FA0CFCFD40FC404CEA050530
:1013A800C6E90054002747E7C2F1200320FA03F7F3
:1013B800954001FA02F021FA03F34FEA154E38433B
:1013C800010CB3FBFEF71FFA85F80EFB173341EA51
:1013D800034107FB08F38B4204FA02F407D96918A2
:1013E80007F1FF3C2FD28B422DD9023F2944CB1A5B
:1013F80081B2B3FBFEF00EFB103341EA034100FB60
:1014080008F38B4207D9691800F1FF3C17D28B42C9
:1014180015D902382944C91A40EA07473BE7374635
:10142800304609E70746E7E61846FBE64145ABD2F2
:10143800B8EB020A69EB0E0201381346A4E76046CE
:10144800E9E7184695E76746D1E781467CE7023821
:101458002C4447E7ACF1020C2B442FE7384608E749
:101468003746E9E6704700BF034613F8012B002A08
:10147800FBD1181A013870474FEA410C7FEA6C5CBF
:1014880002D150EA013C0AD14FEA430C7FEA6C5C76
:1014980002D152EA033C02D14FF0000070474FF0EE
:1014A8000100704780B500AF032001F025F9002046
:1014B80000F00AF80346002B01D0012302E008F0EF
:1014C800B9FF0023184680BD80B582B000AF7860B0
:1014D800124B1A68124B1B7819464FF47A73B3FBF8
:1014E800F1F3B2FBF3F3184601F03BF90346002B86
:1014F80001D001230EE07B680F2B0AD800227968FF
:101508004FF0FF3001F003F9064A7B6813600023AF
:1015180000E0012318460837BD4680BD540000206E
:10152800040000200000002080B400AF054B1B78A9
:101538001A46054B1B681344034A136000BFBD4697
:1015480080BC7047040000204C02002080B400AF2B
:10155800024B1B681846BD4680BC70474C020020F1
:1015680080B584B000AF7860FFF7F0FFB8607B68A3
:10157800FB60FB68B3F1FF3F05D0094B1B781A46A7
:10158800FB681344FB6000BFFFF7E0FF0246BB683F
:10159800D31AFA689A42F7D800BF1037BD4680BD03
:1015A8000400002080B483B000AF78603960074B36
:1015B8005A687B68DB431A4004493B6813434B6015
:1015C80000BF0C37BD4680BC704700BF0004005800
:1015D80080B58EB000AF7860002387F837300023DD
:1015E800FB620023BB607B68002B01D101230EE264
:1015F8007B68DB68002B7B685B6D002B09D1786802
:1016080007F08AFB7B6800229A657B68002283F8D2
:1016180050207B681B689B6803F00053002B07D0A1
:101628007B681B689A687B681B6822F000529A6086
:101638007B681B689B6803F08053002B19D17B687B
:101648001B689A687B681B6842F080529A60674BF7
:101658001B68674AA2FB0323DA0C13469B0013445A
:101668005B00BB6002E0BB68013BBB60BB68002B52
:10167800F9D17B681B689B6803F08053002B0ED15F
:101688007B685B6D43F010027B685A657B689B6DD5
:1016980043F001027B689A65012387F837307B683D
:1016A8005B6D03F01003002B40F0A6817B681B687C
:1016B8009B6803F00403002B40F09E817B685B6D00
:1016C80043F002027B685A657B681B68494A93426B
:1016D80004D07B681B68484A934202D1474B3B635E
:1016E80001E0474B3B637B681B689B6803F003037F
:1016F800012B08D17B681B681B6803F00103012BD1
:1017080001D1012300E00023002B40F08E807B688C
:101718001B68384A934220D1374B9B6803F0030378
:10172800012B05D1344B1B6803F00103012B0BD0AF
:10173800344B9B6803F00303012B07D1314B1B6823
:1017480003F00103012B01D1012300E00023002B4A
:101758000CBF01230023DBB25CE07B681B68264AD0
:10176800934220D1234B9B6803F00303012B05D13F
:10177800204B1B6803F00103012B0BD0214B9B6806
:1017880003F00303012B07D11E4B1B6803F0010371
:10179800012B01D1012300E0002303F00103DBB298
:1017A800002B20D113E0134B9B6803F00303012B9C
:1017B80007D1104B1B6803F00103012B01D1012352
:1017C80000E0002303F00103DBB2002B0BD10A4B2E
:1017D8009B6803F00303012B16D1074B1B6803F02A
:1017E8000103012B10D101230FE000BF540000209A
:1017F80083DE1B43002002400021024000230240F8
:1018080000630258006002580023002B0CBF01231C
:101818000023DBB2002B08D03B6B9B6823F47C12BF
:101828007B685B681A433B6B9A607B685B7D1A46F2
:101838004FF400533B623B6A93FAA3F3FB61FB69E5
:10184800B3FA83F302FA03F31A467B681B6B1A4355
:101858007B689B6813437A68127F11464FF4803285
:10186800BA62BA6A92FAA2F27A627A6AB2FA82F230
:1018780001FA02F21343FB627B681B7F012B11D133
:101888007B681B6A5A1E4FF46023BB61BB6993FADD
:10189800A3F37B617B69B3FA83F302FA03F3FA6A71
:1018A8001343FB627B685B6A012B0BD07B689B6AE6
:1018B800002B07D07B685A6A7B689B6A1343FA6AD5
:1018C8001343FB627B681B68DA68534B13407A68E2
:1018D8001268F96A0B43D3607B681B689B6803F046
:1018E8000C03002B66D17B681B7D1A464FF480439E
:1018F8003B613B6993FAA3F3FB60FB68B3FA83F39C
:1019080002FA03F31A467B68DB6A1343FB627B68BF
:101918001B68DA68414B13407A681268F96A0B430E
:10192800D3607B6893F83930012B1AD17B685B6AE6
:10193800012B7B681B681A69394B13407A68D26B94
:1019480011047A68126C11437A68526C11437A68F0
:10195800926C0A431A437B681B6842F001021A61C1
:1019680007E07B681B681A697B681B6822F0010224
:101978001A617B681B681B6923F070417B685A6B8E
:101988007B681B680A431A617B6893F83830012B1F
:1019980008D17B681B689A687B681B6842F4807270
:1019A8009A6007E07B681B689A687B681B6822F46A
:1019B80080729A607B68DB68012B0CD17B681B689E
:1019C8001B6B23F00F017B689B695A1E7B681B68A1
:1019D8000A431A6307E07B681B681A6B7B681B68FD
:1019E80022F00F021A637B685B6D23F0030343F058
:1019F80001027B685A6508E07B685B6D43F0100262
:101A08007B685A65012387F8373097F837301846CE
:101A18003837BD4680BD00BF03C0F0FFFCBFFFFFE5
:101A28001EF800FC80B4B7B000AF786039600023BE
:101A380087F8D7300023BB603B68DB68B3F1804F81
:101A480003D17B681B68A74A93427B6893F85030A0
:101A5800012B02D1022300F0A8BC7B68012283F885
:101A680050207B681B689B6803F00403002B40F040
:101A78008B847B681B68D9693B681B6801229A4084
:101A88007B681B680A43DA613B685B68042B36D8BD
:101A98007B681B681A6B4FF4F863C7F8C030D7F837
:101AA800C03093FAA3F3C7F8BC30D7F8BC30B3FA08
:101AB80083F319463B685B6803FB01F31F2101FAB6
:101AC80003F3DB4302EA03013B681A684FF4F86347
:101AD800C7F8C830D7F8C83093FAA3F3C7F8C430AA
:101AE800D7F8C430B3FA83F318463B685B6803FB46
:101AF80000F39A407B681B680A431A63B1E03B68AD
:101B08005B68092B38D87B681B685A6B4FF4F863FD
:101B1800C7F8B030D7F8B03093FAA3F3C7F8AC30B1
:101B2800D7F8AC30B3FA83F319463B685B68053BDA
:101B380003FB01F31F2101FA03F3DB4302EA03016C
:101B48003B681A684FF4F863C7F8B830D7F8B8306C
:101B580093FAA3F3C7F8B430D7F8B430B3FA83F3E1
:101B680018463B685B68053B03FB00F39A407B68BB
:101B78001B680A435A6374E03B685B680E2B38D8CD
:101B88007B681B689A6B4FF4F863C7F8A030D7F8E6
:101B9800A03093FAA3F3C7F89C30D7F89C30B3FA77
:101BA80083F319463B685B680A3B03FB01F31F217B
:101BB80001FA03F3DB4302EA03013B681A684FF4B6
:101BC800F863C7F8A830D7F8A83093FAA3F3C7F892
:101BD800A430D7F8A430B3FA83F318463B685B689F
:101BE8000A3B03FB00F39A407B681B680A439A632D
:101BF80037E07B681B68DA6B4FF4F863C7F89030FE
:101C0800D7F8903093FAA3F3C7F88C30D7F88C3014
:101C1800B3FA83F319463B685B680F3B03FB01F398
:101C28001F2101FA03F3DB4302EA03013B681A6848
:101C38004FF4F863C7F89830D7F8983093FAA3F3BD
:101C4800C7F89430D7F89430B3FA83F318463B6852
:101C58005B680F3B03FB00F39A407B681B680A43F1
:101C6800DA637B681B689B6803F00C03002B40F069
:101C7800E9813B681B68092B36D97B681B689A6920
:101C88003823C7F88030D7F8803093FAA3F3FB677E
:101C9800FB6FB3FA83F319463B681B680A3B03FBE7
:101CA80001F3072101FA03F3DB4302EA03013B686E
:101CB8009A683823C7F88830D7F8883093FAA3F39E
:101CC800C7F88430D7F88430B3FA83F318463B68F2
:101CD8001B680A3B03FB00F39A407B681B680A43B6
:101CE8009A612DE0006002587B681B685A693823A6
:101CF8003B673B6F93FAA3F3FB66FB6EB3FA83F380
:101D080019463B681B6803FB01F3072101FA03F33B
:101D1800DB4302EA03013B689A683823BB67BB6F61
:101D280093FAA3F37B677B6FB3FA83F318463B6898
:101D38001B6803FB00F39A407B681B680A435A61DF
:101D48003B685A697B681B68DB689B0803F00703DC
:101D58005B0002FA03F3C7F8CC303B681B69013B10
:101D6800032B00F2FA8001A252F823F0851D000827
:101D7800FB1D0008731E0008EB1E00087B681B682B
:101D88001B6E03F000413B681A684FF0F843BB66CE
:101D9800BB6E93FAA3F37B667B6EB3FA83F39A4028
:101DA800D7F8CC301A437B681B680A431A667B68ED
:101DB8001B681B6923F400623B681B7E19467B681D
:101DC8001B680A431A613B685B7E002B08D07B685E
:101DD8001B681A6E7B681B6842F000421A6634E181
:101DE8007B681B681A6E7B681B6822F000421A66C3
:101DF8002BE17B681B685B6E03F000413B681A6847
:101E08004FF0F8433B663B6E93FAA3F3FB65FB6D1B
:101E1800B3FA83F39A40D7F8CC301A437B681B682F
:101E28000A435A667B681B681B6923F480523B6827
:101E38001B7E5B0019467B681B680A431A613B6876
:101E48005B7E002B08D07B681B685A6E7B681B681A
:101E580042F000425A66F8E07B681B685A6E7B685D
:101E68001B6822F000425A66EFE07B681B689B6E95
:101E780003F000413B681A684FF0F843BB65BB6D3F
:101E880093FAA3F37B657B6DB3FA83F39A40D7F893
:101E9800CC301A437B681B680A439A667B681B68C8
:101EA8001B6923F400523B681B7E9B0019467B6824
:101EB8001B680A431A613B685B7E002B08D07B686D
:101EC8001B689A6E7B681B6842F000429A66BCE009
:101ED8007B681B689A6E7B681B6822F000429A66D2
:101EE800B3E07B681B68DB6E03F000413B681A684F
:101EF8004FF0F8433B653B6D93FAA3F3FB64FB6C2F
:101F0800B3FA83F39A40D7F8CC301A437B681B683E
:101F18000A43DA667B681B681B6923F480423B68C6
:101F28001B7EDB0019467B681B680A431A613B6805
:101F38005B7E002B08D07B681B68DA6E7B681B68A9
:101F480042F00042DA6680E07B681B68DA6E7B68E4
:101F58001B6822F00042DA6677E07B681B681B6E1C
:101F680003F0F8423B6819684FF0F843BB64BB6C58
:101F780093FAA3F37B647B6CB3FA83F301FA03F35C
:101F88009A4207D17B681B681A6E7B681B6822F02F
:101F980000421A667B681B685B6E03F0F8423B6878
:101FA80019684FF0F8433B643B6C93FAA3F3FB6367
:101FB800FB6BB3FA83F301FA03F39A4207D17B6808
:101FC8001B685A6E7B681B6822F000425A667B6861
:101FD8001B689B6E03F0F8423B6819684FF0F843A2
:101FE800BB63BB6B93FAA3F37B637B6BB3FA83F39B
:101FF80001FA03F39A4207D17B681B689A6E7B68E3
:102008001B6822F000429A667B681B68DB6E03F04F
:10201800F8423B6819684FF0F8433B633B6B93FA0F
:10202800A3F3FB62FB6AB3FA83F301FA03F39A4260
:102038000AD17B681B68DA6E7B681B6822F0004255
:10204800DA6601E000BF00E000BF7B681B689B68A0
:1020580003F00303012B08D17B681B681B6803F09E
:102068000103012B01D1012300E00023002B40F0E4
:1020780096813B68DB68B3F1804F0FD07B681B68A3
:10208800D3F8C0103B681B68012202FA03F3DA4355
:102098007B681B680A40C3F8C0206DE07B681B683A
:1020A800D3F8C0103B681B6801229A407B681B6804
:1020B8000A43C3F8C0203B681B68082B2ED97B68ED
:1020C8001B689A6938233B623B6A93FAA3F3FB6166
:1020D800FB69B3FA83F319463B681B68093B03FBAA
:1020E80001F3072101FA03F3DB4302EA03013B682A
:1020F8009A683823BB62BB6A93FAA3F37B627B6A54
:10210800B3FA83F318463B681B68093B03FB00F3EB
:102118009A407B681B680A439A612DE07B681B68BC
:102128005A6938233B613B6993FAA3F3FB60FB6868
:10213800B3FA83F319463B681B68013303FB01F3C9
:10214800072101FA03F3DB4302EA03013B689A68BB
:102158003823BB61BB6993FAA3F37B617B69B3FA4C
:1021680083F318463B681B68013303FB00F39A406E
:102178007B681B680A435A617B681B688D4A9342D7
:1021880004D07B681B688C4A934203D18B4BC7F8F9
:10219800D03002E08A4BC7F8D0303B681B68122B5E
:1021A80006D1D7F8D0309B6803F40003002B17D072
:1021B8003B681B68112B06D1D7F8D0309B6803F019
:1021C8008073002B0CD03B681B68132B40F0E78012
:1021D800D7F8D0309B6803F48003002B40F0DF80F1
:1021E8007B681B689B6803F00303012B08D17B689D
:1021F8001B681B6803F00103012B01D1012300E0D8
:102208000023002B40F0B6807B681B68694A934224
:102218001DD1694B9B6803F00303012B05D1664B65
:102228001B6803F00103012B0BD0664B9B6803F07E
:102238000303012B07D1634B1B6803F00103012B38
:1022480001D1012300E00023002B4BD092E07B68F2
:102258001B68594A934220D1564B9B6803F00303ED
:10226800012B05D1534B1B6803F00103012B0BD045
:10227800544B9B6803F00303012B07D1514B1B6898
:1022880003F00103012B01D1012300E0002303F037
:102298000103DBB2002B20D113E0464B9B6803F00F
:1022A8000303012B07D1434B1B6803F00103012BE8
:1022B80001D1012300E0002303F00103DBB2002B6E
:1022C8000BD13D4B9B6803F00303012B07D13A4B1D
:1022D8001B6803F00103012B01D1012300E0002357
:1022E800002B47D13B681B68122B1FD17B681B68EA
:1022F800344A93421AD1D7F8D0309B6843F400028D
:10230800D7F8D0309A60304B1B68304AA2FB0323C1
:10231800DA0C13461B019B1ADB00BB6002E0BB68AA
:10232800013BBB60BB68002BF9D137E03B681B68F9
:10233800112B0DD17B681B68224A934208D1D7F82C
:10234800D0309B6843F08072D7F8D0309A6025E08F
:102358003B681B68132B21D17B681B68194A934281
:102368001CD1D7F8D0309B6843F48002D7F8D0301E
:102378009A6013E07B685B6D43F020027B685A65C6
:10238800012387F8D7300AE07B685B6D43F02002B1
:102398007B685A65012387F8D73000E000BF7B6867
:1023A800002283F8502097F8D7301846DC37BD460E
:1023B80080BC7047002002400021024000230240F8
:1023C80000630258006002585400002083DE1B435B
:1023D80080B49FB000AF78603960002387F8773009
:1023E8007B6893F85030012B01D10223ABE07B6866
:1023F800012283F850207B681B68554A934202D11A
:10240800544BFB6001E00023FB60FB68002B0BD101
:102418007B685B6D43F020027B685A657B6800220D
:1024280083F8502001238EE07B681B689B6803F0CB
:102438000403002B76D1FB689B6803F00403002B90
:1024480070D1454B3B673B681B68002B39D03B6F0D
:102458009B6823F440423B685B681A433B6F9A6071
:102468007B681B689B6803F00303012B08D17B681A
:102478001B681B6803F00103012B01D1012300E055
:102488000023002B58D1FB689B6803F00303012B42
:1024980007D1FB681B6803F00103012B01D101235D
:1024A80000E00023002B47D13B6F9A682B4B134069
:1024B8003A6811683A6892680A431A433B6F9A600F
:1024C8003AE03B6F9B6823F440423B6F9A607B681D
:1024D8001B689B6803F00303012B08D17B681B680A
:1024E8001B6803F00103012B01D1012300E0002345
:1024F800002B21D1FB689B6803F00303012B07D154
:10250800FB681B6803F00103012B01D1012300E0E4
:102518000023002B10D13B6F9A68104B13403A6F81
:10252800936009E07B685B6D43F020027B685A6525
:10253800012387F8773000E000BF7B68002283F82A
:10254800502097F8773018467C37BD4680BC7047D6
:10255800002002400021024000230240E0F0FFFF7B
:1025680080B485B000AF78607B6803F00703FB6038
:102578000B4BDB68BB60BA684FF6FF031340BB60C8
:10258800FB681A02BB681A43064B1343BB60044A34
:10259800BB68D36000BF1437BD4680BC704700BF1E
:1025A80000ED00E00000FA0580B400AF044BDB68E2
:1025B8001B0A03F007031846BD4680BC704700BFDE
:1025C80000ED00E080B483B000AF0346FB80B7F9AC
:1025D8000630002B0BDBFB8803F01F020649B7F916
:1025E80006305B09012000FA02F241F8232000BFFF
:1025F8000C37BD4680BC704700E100E080B483B072
:1026080000AF03463960FB80B7F90630002B0ADBC0
:102618003B68DAB20C49B7F906301201D2B20B4462
:1026280083F800230AE03B68DAB20849FB8803F024
:102638000F03043B1201D2B20B441A7600BF0C37C9
:10264800BD4680BC704700BF00E100E000ED00E03F
:1026580080B489B000AFF860B9607A60FB6803F0B5
:102668000703FB61FB69C3F10703042B28BF04239D
:10267800BB61FB690433062B02D9FB69033B00E00D
:1026880000237B614FF0FF32BB6902FA03F3DA43A0
:10269800BB681A407B699A404FF0FF317B6901FAA9
:1026A80003F3D9437B680B40134318462437BD46D0
:1026B80080BC704780B582B000AF78607B68013B12
:1026C800B3F1807F01D301230FE00A4A7B68013B05
:1026D80053600F214FF0FF30FFF790FF054B0022AA
:1026E8009A60044B07221A60002318460837BD4633
:1026F80080BD00BF10E000E080B582B000AF786018
:102708007868FFF72DFF00BF0837BD4680BD80B54C
:1027180086B000AF0346B9607A60FB8100237B6115
:10272800FFF742FF78617A68B9687869FFF790FF28
:102738000246B7F90E3011461846FFF75FFF00BF93
:102748001837BD4680BD80B582B000AF0346FB8018
:10275800B7F906301846FFF735FF00BF0837BD4602
:1027680080BD80B582B000AF78607868FFF7A2FFBF
:10277800034618460837BD4680BD000080B483B0C4
:1027880000AF78607B68042B06D1094B1B68084AA8
:1027980043F00403136005E0054B1B68044A23F06B
:1027A8000403136000BF0C37BD4680BC704700BFF0
:1027B80010E000E080B500AF00F002F800BF80BD77
:1027C80080B400AF00BFBD4680BC704780B582B002
:1027D80000AF78607B68002B01D1012398E07B680B
:1027E80093F83530DBB2022B04D07B6880225A651F
:1027F80001238DE07B681B681A46474B9A4207D92C
:102808007B681B681A46454B9A4201D8012300E0B1
:102818000023002B21D07B68042283F835207B68B5
:102828001B681A463C4B9A420ED97B681B681A46AD
:102838003A4B9A4208D87B681B681A687B681B6801
:1028480022F001021A6062E07B681B681A687B68E4
:102858001B6822F001021A6059E07B681B681A683D
:102868007B681B6822F00E021A607B681B681A4698
:10287800294B9A420ED97B681B681A46274B9A4205
:1028880008D87B681B681A687B681B6822F00102FD
:102898001A6007E07B681B681A687B681B6822F06F
:1028A80001021A607B681B6E1A687B681B6E22F433
:1028B80080721A607B68DB6D194A012101FA03F303
:1028C80053607B685B6E7A68926E5A607B68DB6ED9
:1028D800002B0CD07B68DB6E1A687B68DB6E22F4F9
:1028E80080721A607B681B6F7A68526F5A607B68C7
:1028F800002283F834207B68012283F835207B6826
:102908001B6D002B03D07B681B6D786898470023EC
:1029180018460837BD4680BD0F000240B804024083
:102928000054025880B489B000AF78603960002341
:10293800FB6100237B6100233B610023BB618B4B60
:10294800FB600023FB6196E10122FB6902FA03F3B5
:102958007B613B681B687A6913403B613A697B6914
:102968009A4240F085813B685B68022B03D03B6844
:102978005B68122B23D1FB69DA087B68083253F8AD
:102988002230BB61FB6903F007039B000F2202FAA8
:1029980003F3DB43BA691340BB613B681A69FB69FF
:1029A80003F007039B0002FA03F3BA691343BB6100
:1029B800FB69DA087B680832B96943F822107B683A
:1029C8001B68BB61FB695B00032202FA03F3DB436C
:1029D800BA691340BB613B685B6803F00302FB699B
:1029E8005B0002FA03F3BA691343BB617B68BA69F7
:1029F8001A603B685B68012B0BD03B685B68022B55
:102A080007D03B685B68112B03D03B685B68122BCF
:102A180030D17B689B68BB61FB695B00032202FACB
:102A280003F3DB43BA691340BB613B68DA68FB69AF
:102A38005B0002FA03F3BA691343BB617B68BA69A6
:102A48009A607B685B68BB610122FB6902FA03F349
:102A5800DB43BA691340BB613B685B681B0903F041
:102A68000102FB6902FA03F3BA691343BB617B688D
:102A7800BA695A607B68DB68BB61FB695B0003224B
:102A880002FA03F3DB43BA691340BB613B689A68F7
:102A9800FB695B0002FA03F3BA691343BB617B6805
:102AA800BA69DA603B685B6803F08053002B00F07A
:102AB800DF802F4BD3F8F4302D4A43F00203C2F8DD
:102AC800F4302B4BD3F8F43003F00203BB60BB683F
:102AD800284AFB699B08023352F82330BB61FB6923
:102AE80003F003039B000F2202FA03F3DB43BA69E6
:102AF8001340BB617B68204A934251D07B681F4AD0
:102B0800934231D07B681E4A93422BD07B681D4A82
:102B1800934225D07B681C4A93421FD07B681B4A8E
:102B2800934219D07B681A4A934213D07B68194A9A
:102B380093420DD07B68184A934207D07B68174AA6
:102B4800934201D109232CE00A232AE0082328E034
:102B5800072326E0062324E0052322E0042320E0BF
:102B680003231EE002231CE001231AE08000005822
:102B7800004402580004005800000258000402589B
:102B880000080258000C025800100258001402589D
:102B980000180258001C025800200258002402584D
:102BA8000023FA6902F0030292009340BA691343C2
:102BB800BB613549FB699B080233BA6941F8232098
:102BC800FB681B68BB613B69DB43BA691340BB61A7
:102BD8003B685B6803F48033002B03D0BA693B6918
:102BE8001343BB61FB68BA691A60FB685B68BB6129
:102BF8003B69DB43BA691340BB613B685B6803F41C
:102C08000033002B03D0BA693B691343BB61FB68EF
:102C1800BA695A604FF0B0431B68BB613B69DB433C
:102C2800BA691340BB613B685B6803F48013002BEF
:102C380003D0BA693B691343BB614FF0B042BB692B
:102C480013604FF0B0435B68BB613B69DB43BA6913
:102C58001340BB613B685B6803F40013002B03D08F
:102C6800BA693B691343BB614FF0B042BB6953601B
:102C7800FB690133FB61FB690F2B7FF665AE00BF73
:102C88002437BD4680BC70470004005880B485B026
:102C980000AF78600B467B807B681A697B8813409D
:102CA800002B02D00123FB7301E00023FB73FB7BA5
:102CB80018461437BD4680BC704780B483B000AF57
:102CC80078600B467B8013467B707B78002B03D0A3
:102CD8007B687A881A8302E07B687A885A8300BF07
:102CE8000C37BD4680BC704780B582B000AF7860B5
:102CF8007B68002B01D101237FE07B6893F841308A
:102D0800DBB2002B06D17B68002283F8402078686C
:102D180006F092FA7B68242283F841207B681B68BE
:102D28001A687B681B6822F001021A607B685A687F
:102D38007B681B6822F070621A617B681B689A685E
:102D48007B681B6822F400429A607B68DB68012B71
:102D580007D17B689A687B681B6842F400429A60D6
:102D680006E07B689A687B681B6842F404429A60B4
:102D78007B68DB68022B04D17B681B684FF4006218
:102D88005A607B681B6859687B681A681D4B0B433F
:102D980053607B681B68DA687B681B6822F4004212
:102DA800DA607B681A697B685B6942EA03017B68C1
:102DB8009B691A027B681B680A43DA607B68D969D9
:102DC8007B681A6A7B681B680A431A607B681B6801
:102DD8001A687B681B6842F001021A607B6800224F
:102DE8005A647B68202283F841207B6800221A639A
:102DF8007B68002283F84220002318460837BD4626
:102E080080BD00BF0080000280B483B000AF78604E
:102E180039607B6893F84130DBB2202B38D17B686E
:102E280093F84030012B01D1022332E07B68012264
:102E380083F840207B68242283F841207B681B6844
:102E48001A687B681B6822F001021A607B681B689D
:102E58001A687B681B6822F480521A607B681B68BA
:102E680019687B681B683A680A431A607B681B68A4
:102E78001A687B681B6842F001021A607B6820228E
:102E880083F841207B68002283F84020002300E07B
:102E9800022318460C37BD4680BC704780B485B005
:102EA80000AF786039600023FB607B6893F841309D
:102EB800DBB2202B39D17B6893F84030012B01D14C
:102EC800022333E07B68012283F840207B682422B8
:102ED80083F841207B681B681A687B681B6822F0AE
:102EE80001021A607B681B681B68FB60FB6823F49F
:102EF8007063FB603B681B02FA681343FB607B68E6
:102F08001B68FA681A607B681B681A687B681B680C
:102F180042F001021A607B68202283F841207B6816
:102F2800002283F84020002300E0022318461437CB
:102F3800BD4680BC7047000080B58EB000AF786099
:102F480000237B637B681B6803F00103002B00F000
:102F58008680934B1B6903F03803102B0BD0904BE2
:102F68001B6903F03803182B11D18D4B9B6A03F0B2
:102F78000303022B0BD18A4B1B6803F40033002B8D
:102F88006CD07B685B68002B68D1012364E37B68A5
:102F98005B68B3F5803F06D1814B1B68804A43F4D8
:102FA800803313602EE07B685B68002B0CD17C4B70
:102FB8001B687B4A23F480331360794B1B68784A7B
:102FC80023F4802313601DE07B685B68B3F5A02FB2
:102FD8000CD1734B1B68724A43F480231360704B07
:102FE8001B686F4A43F4803313600BE06C4B1B681B
:102FF8006B4A23F480331360694B1B68684A23F4D7
:10300800802313607B685B68002B13D0FEF79EFA61
:10301800786308E0FEF79AFA02467B6BD31A642BB2
:1030280001D9032318E35E4B1B6803F40033002B1C
:10303800F0D014E0FEF78AFA786308E0FEF786FA23
:1030480002467B6BD31A642B01D9032304E3544B48
:103058001B6803F40033002BF0D100E000BF7B684D
:103068001B6803F00203002B00F0A2804C4B1B6985
:1030780003F03803002B0BD0494B1B6903F03803CE
:10308800182B43D1464B9B6A03F00303002B3DD119
:10309800434B1B6803F00403002B05D07B68DB68F7
:1030A800002B01D10123D7E23D4B1B6823F0190205
:1030B8007B68DB683A4913430B60FEF747FA78638D
:1030C80008E0FEF743FA02467B6BD31A022B01D9BC
:1030D8000323C1E2324B1B6803F00403002BF0D03A
:1030E8002F4B5B6823F47C327B6819694FF47C337F
:1030F8003B633B6B93FAA3F3FB62FB6AB3FA83F37C
:1031080001FA03F3264913434B6051E07B68DB68FF
:10311800002B31D0224B1B6823F019027B68DB6837
:103128001F4913430B60FEF711FA786308E0FEF7B6
:103138000DFA02467B6BD31A022B01D903238BE2CB
:10314800174B1B6803F00403002BF0D0144B5B688B
:1031580023F47C327B6819694FF47C33BB62BB6A09
:1031680093FAA3F37B627B6AB3FA83F301FA03F35E
:103178000B4913434B601BE0094B1B68084A23F0BB
:1031880001031360FEF7E2F978630BE0FEF7DEF95E
:1031980002467B6BD31A022B04D903235CE200BFDF
:1031A80000440258A04B1B6803F00403002BEDD128
:1031B8007B681B6803F01003002B7FD09A4B1B69B8
:1031C80003F03803082B0BD0974B1B6903F0380327
:1031D800182B27D1944B9B6A03F00303012B21D1B1
:1031E800914B1B6803F48073002B05D07B68DB6967
:1031F800802B01D001232FE28B4B5B6823F0F84230
:103208007B68196A4FF0F8433B623B6A93FAA3F371
:10321800FB61FB69B3FA83F301FA03F382491343B1
:103228004B604BE07B68DB69002B2ED07E4B1B6824
:103238007D4A43F080031360FEF788F9786308E05D
:10324800FEF784F902467B6BD31A022B01D90323BC
:1032580002E2754B1B6803F48073002BF0D0724BAD
:103268005B6823F0F8427B68196A4FF0F843BB614A
:10327800BB6993FAA3F37B617B69B3FA83F301FA21
:1032880003F3694913434B6018E0674B1B68664AB0
:1032980023F080031360FEF759F9786308E0FEF71E
:1032A80055F902467B6BD31A022B01D90323D3E1CC
:1032B8005D4B1B6803F48073002BF0D17B681B689F
:1032C80003F00803002B36D07B685B69002B19D00C
:1032D800554B5B6F544A43F001035367FEF736F9C9
:1032E800786308E0FEF732F902467B6BD31A022BAB
:1032F80001D90323B0E14C4B5B6F03F00203002BB1
:10330800F0D018E0484B5B6F474A23F0010353673E
:10331800FEF71CF9786308E0FEF718F902467B6BA4
:10332800D31A022B01D9032396E13F4B5B6F03F0BD
:103338000203002BF0D17B681B6803F02003002BED
:1033480036D07B689B69002B19D0374B1B68364AEF
:1033580043F480531360FEF7F9F8786308E0FEF74A
:10336800F5F802467B6BD31A022B01D9032373E1CC
:103378002D4B1B6803F40053002BF0D018E02A4BA8
:103388001B68294A23F480531360FEF7DFF878633B
:1033980008E0FEF7DBF802467B6BD31A022B01D953
:1033A800032359E1204B1B6803F40053002BF0D191
:1033B8007B681B6803F00403002B00F085801B4B1F
:1033C8001B681A4A43F480731360FEF7BFF87863EA
:1033D80008E0FEF7BBF802467B6BD31A642B01D9D1
:1033E800032339E1114B1B6803F48073002BF0D0E1
:1033F8007B689B68012B06D10B4B1B6F0A4A43F075
:103408000103136731E07B689B68002B10D1064BE2
:103418001B6F054A23F001031367034B1B6F024A16
:1034280023F00403136720E00044025800480258C0
:103438007B689B68052B0CD1894B1B6F884A43F02E
:1034480004031367864B1B6F854A43F00103136718
:103458000BE0834B1B6F824A23F001031367804BF9
:103468001B6F7F4A23F0040313677B689B68002B5C
:1034780015D0FEF76BF878630AE0FEF767F80246A6
:103488007B6BD31A41F28832934201D90323E3E0DC
:10349800734B1B6F03F00203002BEED014E0FEF712
:1034A80055F878630AE0FEF751F802467B6BD31AA9
:1034B80041F28832934201D90323CDE0684B1B6F58
:1034C80003F00203002BEED17B685B6A002B00F04F
:1034D800C280634B1B6903F03803182B00F0B980D6
:1034E8007B685B6A022B40F09A805D4B1B685C4AE4
:1034F80023F080731360FEF729F8786308E0FEF77D
:1035080025F802467B6BD31A022B01D90323A3E0CB
:10351800534B1B6803F00073002BF0D1504B9A6A91
:10352800504B13407A68916A7A68D26A12010A434A
:103538004B4913438B627B681B6B013BC3F3080247
:103548007B685B6B013B5B029BB21A437B689B6B9E
:10355800013B1B0403F4FE031A437B68DB6B013B4E
:103568001B0603F0FE433E4913430B633C4B5A6B67
:103578003D4B13407A68916C4FF6F8723A613A699C
:1035880092FAA2F2FA60FA68B2FA82F201FA02F248
:10359800334913434B63324BDB6A23F00C027B68DD
:1035A8001B6C2F491343CB622D4BDB6A23F00202BD
:1035B8007B685B6C2A491343CB62294BDB6A284A38
:1035C80043F48033D362264BDB6A254A43F4003345
:1035D800D362234BDB6A224A43F48023D362204B15
:1035E800DB6A1F4A43F00103D3621D4B1B681C4A68
:1035F80043F080731360FDF7A9FF786308E0FDF7D7
:10360800A5FF02467B6BD31A022B01D9032323E0C3
:10361800134B1B6803F00073002BF0D01BE0104B1A
:103628001B680F4A23F080731360FDF78FFF7863E0
:1036380008E0FDF78BFF02467B6BD31A022B01D9FA
:10364800032309E0064B1B6803F00073002BF0D13D
:1036580001E0012300E0002318463837BD4680BD4D
:10366800004402580CFCFFFF0700FFFF80B586B03E
:1036780000AF7860396000237B619D4B1B6803F0C5
:1036880007033A689A4210D9994B1B6823F007023E
:1036980097493B6813430B60954B1B6803F007037E
:1036A8003A689A4201D001231DE17B681B6803F048
:1036B8000203002B08D08F4B9B6923F00F027B6815
:1036C800DB688C4913438B617B681B6803F001033B
:1036D800002B00F09780874B9B6923F470627B680E
:1036E8009B68844913438B617B685B68022B07D115
:1036F800804B1B6803F40033002B21D10123F2E037
:103708007B685B68032B07D17A4B1B6803F0007357
:10371800002B15D10123E6E07B685B68012B07D1FC
:10372800744B1B6803F48073002B09D10123DAE082
:10373800704B1B6803F00403002B01D10123D2E076
:103748006C4B1B6923F007027B685B68694913436C
:103758000B61FDF7FBFE78617B685B68022B12D179
:103768000AE0FDF7F3FE02467B69D31A41F288327C
:10377800934201D90323B6E05E4B1B6903F038037B
:10378800102BEED13EE07B685B68032B12D10AE078
:10379800FDF7DCFE02467B69D31A41F28832934278
:1037A80001D903239FE0534B1B6903F03803182BFF
:1037B800EED127E07B685B68012B1DD10AE0FDF79D
:1037C800C5FE02467B69D31A41F28832934201D979
:1037D800032388E0474B1B6903F03803082BEED11D
:1037E80010E0FDF7B3FE02467B69D31A41F2883236
:1037F800934201D9032376E03E4B1B6903F038035B
:10380800002BEED13A4B1B6803F007033A689A4243
:1038180010D2374B1B6823F0070235493B68134326
:103828000B60334B1B6803F007033A689A4201D0D8
:10383800012358E07B681B6803F00403002B08D0C1
:103848002C4B9B6923F070027B681B692949134341
:103858008B617B681B6803F00803002B08D0254B9D
:10386800DB6923F070027B685B6922491343CB61F3
:103878007B681B6803F01003002B08D01D4BDB6925
:1038880023F4E0627B689B691A491343CB617B6828
:103898001B6803F02003002B08D0164B1B6A23F08B
:1038A80070027B68DB69134913430B6200F028F848
:1038B8000146104B9B6903F470624FF480733B61BF
:1038C8003B6993FAA3F3FB60FB68B3FA83F322FA2C
:1038D80003F3094AD35C21FA03F3084A1360002072
:1038E800FDF7F2FD002318461837BD4680BD00BF1E
:1038F8000020005200440258F0CC00085400002078
:10390800B0B588B000AF01237B6100233B61012380
:10391800FB600023BB6000237B604FF000033B602B
:103928004FF00003FB610023BB61B44B1B6903F03C
:103938003803182B00F26A8101A252F823F000BF65
:10394800AD390008153C0008153C0008153C000876
:10395800153C0008153C0008153C0008153C0008FB
:10396800D3390008153C0008153C0008153C000830
:10397800153C0008153C0008153C0008153C0008DB
:10398800D9390008153C0008153C0008153C00080A
:10399800153C0008153C0008153C0008153C0008BB
:1039A800DF390008954B1B6803F02003002B09D072
:1039B800924B1B68DB0803F00303914A22FA03F3D6
:1039C800BB6126E18E4BBB6123E18E4BBB6120E1DD
:1039D8008D4BBB611DE1894B9B6A03F003033B617F
:1039E800864B9B6A1B0903F03F03FB60834BDB6A32
:1039F80003F00103BB60814B5B6BDB08C3F30C0373
:103A0800BA6802FB03F31846FDF7E6F903463B6084
:103A18003B69012B64D0012B03D3022B00F0888073
:103A2800AEE0764B1B6803F02003002B30D0734BBD
:103A38001B68DB0803F00303714A22FA03F37B6077
:103A48007A68FB68B2FBF3F31846FDF7C5F904463C
:103A58006A4B1B6BC3F308031846FDF7BDF905460F
:103A68004FF08C413868FDF7C3FA034619462846DB
:103A7800FDF702F903464FF07E511846FDF7FCF8B2
:103A8800034619462046FDF7FFF90346FB619FE010
:103A98005B4AFB68B2FBF3F31846FDF79DF9044651
:103AA800564B1B6BC3F308031846FDF795F90546FB
:103AB8004FF08C413868FDF79BFA034619462846B3
:103AC800FDF7DAF803464FF07E511846FDF7D4F8B3
:103AD800034619462046FDF7D7F90346FB6177E010
:103AE800484AFB68B2FBF3F31846FDF775F904463C
:103AF800424B1B6BC3F308031846FDF76DF90546E7
:103B08004FF08C413868FDF773FA0346194628468A
:103B1800FDF7B2F803464FF07E511846FDF7ACF8B2
:103B2800034619462046FDF7AFF90346FB614FE00F
:103B3800354AFB68B2FBF3F31846FDF74DF9044626
:103B48002E4B1B6BC3F308031846FDF745F90546D2
:103B58004FF08C413868FDF74BFA03461946284662
:103B6800FDF78AF803464FF07E511846FDF784F8B2
:103B7800034619462046FDF787F90346FB6127E00F
:103B8800204AFB68B2FBF3F31846FDF725F9044613
:103B98001A4B1B6BC3F308031846FDF71DF90546BE
:103BA8004FF08C413868FDF723FA0346194628463A
:103BB800FDF762F803464FF07E511846FDF75CF8B2
:103BC800034619462046FDF75FF90346FB6100BF2F
:103BD8000A4B1B6B5B0A03F07F0301337B61786937
:103BE800FDF7FAF803461946F869FDF701FA0346A6
:103BF8001846FDF799FA0346BB610AE000440258EB
:103C08000090D00300093D0040787D01034BBB6163
:103C180000BFBB6918462037BD46B0BD00093D004E
:103C280080B582B000AF01F019FB01460D4B9B69CE
:103C380003F00F0201237B607B6893FAA3F33B60D8
:103C48003B68B3FA83F322FA03F3074AD35C21FAF9
:103C580003F3064A1360054B1B6818460837BD4630
:103C680080BD00BF00440258F0CC00085800002076
:103C780080B582B000AFFFF7D3FF01460B4BDB697D
:103C880003F0700210237B607B6893FAA3F33B6018
:103C98003B68B3FA83F322FA03F3054AD35C21FAAB
:103CA80003F318460837BD4680BD00BF00440258DC
:103CB800F0CC000880B582B000AFFFF7B1FF014635
:103CC8000B4BDB6903F4E0624FF480737B607B6825
:103CD80093FAA3F33B603B68B3FA83F322FA03F346
:103CE800044AD35C21FA03F318460837BD4680BD61
:103CF80000440258F0CC000880B586B000AF786068
:103D080000233B610023FB600023FB750023BB7588
:103D18007B681B6803F00063002B49D07B685B6EEF
:103D2800B3F5801F13D0B3F5801F02D8002B07D03E
:103D380029E0B3F5001F18D0B3F5401F26D022E0C4
:103D4800A94BDB6AA84A43F40033D3621FE0A64BB1
:103D5800DB6AA54A43F40013D3627B680433184630
:103D680001F0A4FA0346FB7511E09F4BDB6A9E4AFB
:103D780043F08073D3627B682433184601F016FB46
:103D88000346FB7503E00123FB7500E000BFFB7DE4
:103D9800002B09D1944B1B6D23F440127B685B6E9A
:103DA800914913430B6503E0BA7DFB7D1343BB7553
:103DB8007B681B6803F48073002B49D07B685B6DBC
:103DC800042B30D801A252F823F000BFE93D0008C7
:103DD800F73D0008133E0008353E0008353E000850
:103DE800814BDB6A804A43F40033D3621FE07E4B89
:103DF800DB6A7D4A43F40023D3627B6804331846A8
:103E080001F054FA0346FB7511E0774BDB6A764AFA
:103E180043F48003D3627B682433184601F0C6FA62
:103E28000346FB7503E00123FB7500E000BFFB7D43
:103E3800002B09D16C4B1B6D23F007027B685B6D6F
:103E4800694913430B6503E0BA7DFB7D1343BB75DA
:103E58007B681B6803F40073002B4AD07B689B6D5A
:103E6800802B21D0802B04D8002B08D0402B0DD0DC
:103E780028E0C02B29D0B3F5807F28D022E05A4B08
:103E8800DB6A594A43F40033D36221E0564BDB6ABC
:103E9800554A43F40023D3627B680433184601F083
:103EA80005FA0346FB7513E04F4BDB6A4E4A43F4B1
:103EB8008003D3627B682433184601F077FA0346FF
:103EC800FB7505E00123FB7502E000BF00E000BFC1
:103ED800FB7D002B09D1444B1B6D23F4E0727B68FA
:103EE8009B6D414913430B6503E0BA7DFB7D13438A
:103EF800BB757B681B6803F48063002B50D07B681C
:103F0800D3F8A430B3F5800F24D0B3F5800F05D8CB
:103F1800002B0AD0B3F5001F0ED029E0B3F5C00F6F
:103F280029D0B3F5000F28D022E02F4BDB6A2E4AA8
:103F380043F40033D36221E02B4BDB6A2A4A43F473
:103F48000023D3627B680433184601F0AFF90346B7
:103F5800FB7513E0244BDB6A234A43F48003D362E6
:103F68007B682433184601F021FA0346FB7505E007
:103F78000123FB7502E000BF00E000BFFB7D002BC2
:103F88000AD1194B9B6D23F460027B68D3F8A430E7
:103F9800154913438B6503E0BA7DFB7D1343BB755D
:103FA8007B681B6803F40063002B53D07B68D3F84D
:103FB800A830B3F1007F27D0B3F1007F05D8002BDC
:103FC8000AD0B3F1807F11D02CE0B3F1407F2CD020
:103FD800B3F1806F2BD025E0034BDB6A024A43F430
:103FE8000033D36224E000BF00440258AC4BDB6AC4
:103FF800AB4A43F40023D3627B680433184601F0CC
:1040080055F90346FB7513E0A54BDB6AA44A43F454
:104018008003D3627B682433184601F0C7F903464E
:10402800FB7505E00123FB7502E000BF00E000BF5F
:10403800FB7D002B0AD19A4B9B6D23F0E0627B68D5
:10404800D3F8A830964913438B6503E0BA7DFB7D0E
:104058001343BB757B681B6803F00073002B39D0D2
:104068007B689B6C102B09D0102B02D8002B1DD01D
:1040780019E0202B09D0302B1AD014E0884BDB6ACA
:10408800874A43F40033D36213E0854BDB6A844AE2
:1040980043F40013D3627B680433184601F006F931
:1040A8000346FB7505E00123FB7502E000BF00E055
:1040B80000BFFB7D002B09D1794BDB6C23F030026C
:1040C8007B689B6C76491343CB6403E0BA7DFB7D28
:1040D8001343BB757B681B6803F48053002B4ED0D9
:1040E8007B68DB6DB3F5005F24D0B3F5005F05D8BE
:1040F800002B0AD0B3F5805F0ED029E0B3F5405FFE
:1041080029D0B3F5804F28D022E0654BDB6A644A9A
:1041180043F40033D36221E0614BDB6A604A43F425
:104128000023D3627B680433184601F0BFF80346C6
:10413800FB7513E05A4BDB6A594A43F48003D36298
:104148007B682433184601F031F90346FB7505E016
:104158000123FB7502E000BF00E000BFFB7D002BE0
:1041680009D14F4B1B6D23F4E0427B68DB6D4C4952
:1041780013430B6503E0BA7DFB7D1343BB757B6876
:104188001B6803F40053002B4ED07B681B6EB3F5FD
:10419800003F20D0B3F5003F05D8002B2CD0B3F555
:1041A800803F0AD025E0B3F5802F27D0B3F5A02FA4
:1041B80026D0B3F5403F25D01BE0394BDB6A384A9F
:1041C80043F48013D3627B680433184601F06EF819
:1041D8000346FB7517E0324BDB6A314A43F40003B0
:1041E800D3627B682433184601F0E0F80346FB7578
:1041F80009E00123FB7506E000BF04E000BF02E010
:1042080000BF00E000BFFB7D002B09D1244B1B6DD4
:1042180023F4E0227B681B6E214913430B6503E0FE
:10422800BA7DFB7D1343BB757B681B6803F4804331
:10423800002B53D07B68D3F8AC30B3F1005F20D0AB
:10424800B3F1005F05D8002B2FD0B3F1805F0AD0FF
:1042580028E0B3F1804F2AD0B3F1A04F29D0B3F1B1
:10426800405F28D01EE00E4BDB6A0D4A43F48013F2
:10427800D3627B680433184601F018F80346FB75CF
:104288001AE0074BDB6A064A43F40003D3627B68F3
:104298002433184601F08AF80346FB750CE000BF8A
:1042A800004402580123FB7506E000BF04E000BF8C
:1042B80002E000BF00E000BFFB7D002B0AD18B4B62
:1042C8009B6D23F0E0427B68D3F8AC3087491343F9
:1042D8008B6503E0BA7DFB7D1343BB757B681B6868
:1042E80003F40043002B34D07B68DB6EB3F1805FAE
:1042F80005D0B3F1005F09D0002B18D014E07B4B38
:10430800DB6A7A4A43F40033D36211E0774BDB6A05
:10431800764A43F48013D3627B680433184600F06E
:10432800C5FF0346FB7503E00123FB7500E000BFF2
:10433800FB7D002B09D16D4B1B6D23F040527B6830
:10434800DB6E6A4913430B6503E0BA7DFB7D1343BB
:10435800BB757B681B6803F08073002B38D07B68C3
:104368005B6C032B1FD801A252F823F0B543000859
:104378008543000893430008B54300085B4BDB6A9C
:104388005A4A43F40033D36211E0584BDB6A574A68
:1043980043F40013D3627B680433184600F086FFA9
:1043A8000346FB7503E00123FB7500E000BFFB7DBE
:1043B800002B09D14D4BDB6C23F003027B685B6C4F
:1043C8004A491343CB6403E0BA7DFB7D1343BB75B5
:1043D8007B681B6803F48003002B00F09180444B3A
:1043E8001B68434A43F480731360FDF7AFF8F86025
:1043F80009E0FDF7ABF80246FB68D31A642B02D933
:104408000323FB7505E03A4B1B6803F48073002B0C
:10441800EFD0FB7D002B6FD1344B1A6F7B68D3F83C
:10442800B030534003F44073002B13D02F4B1B6F55
:1044380023F440733B612D4B1B6F2C4A43F48033AC
:1044480013672A4B1B6F294A23F480331367274AC3
:104458003B6913677B68D3F8B030B3F5807F15D11B
:10446800FDF774F8F8600BE0FDF770F80246FB689A
:10447800D31A41F28832934202D90323FB7505E02F
:104488001A4B1B6F03F00203002BEDD0FB7D002BB2
:1044980026D17B68D3F8B03003F44073B3F5407F7E
:1044A8000DD1124B1B6923F47C527B68D3F8B030D2
:1044B8001909104B0B400D4913430B6105E00B4BD9
:1044C8001B690A4A23F47C531361084B1A6F7B68F3
:1044D800D3F8B030C3F30B03044913430B670FE061
:1044E800BA7DFB7D1343BB750AE000BF0044025848
:1044F80000480258CFFFFF00BA7DFB7D1343BB7510
:104508007B681B6803F00103002B00F08A807B683E
:104518009B6F282B70D801A252F823F00746000899
:104528000146000801460008014600080146000847
:10453800014600080146000801460008C945000870
:104548000146000801460008014600080146000827
:10455800014600080146000801460008E545000834
:104568000146000801460008014600080146000807
:1045780001460008014600080146000807460008F1
:1045880001460008014600080146000801460008E7
:1045980001460008014600080146000807460008D1
:1045A80001460008014600080146000801460008C7
:1045B80001460008014600080146000807460008B1
:1045C800B14BDB6AB04A43F48013D3627B6804338F
:1045D800184600F06BFE0346FB7511E0AA4BDB6A38
:1045E800A94A43F40003D3627B682433184600F0D9
:1045F800DDFE0346FB7503E00123FB7500E000BF09
:10460800FB7D002B09D1A04B5B6D23F038027B6842
:104618009B6F9D4913434B6503E0BA7DFB7D1343B4
:10462800BB757B681B6803F00203002B43D07B68D3
:104638005B6F052B2AD801A252F823F09B4600088D
:104648005D460008794600089B4600089B4600081E
:104658009B4600088C4BDB6A8B4A43F48013D36279
:104668007B680433184600F021FE0346FB7511E011
:10467800854BDB6A844A43F40003D3627B682433A6
:10468800184600F093FE0346FB7503E00123FB7513
:1046980000E000BFFB7D002B09D17B4B5B6D23F055
:1046A80007027B685B6F784913434B6503E0BA7D6B
:1046B800FB7D1343BB757B681B6803F00403002B69
:1046C80046D07B68D3F89030052B2BD801A252F83E
:1046D80023F000BF33470008F546000811470008DB
:1046E800334700083347000833470008664BDB6A46
:1046F800654A43F48013D3627B680433184600F09C
:10470800D5FD0346FB7511E05F4BDB6A5E4A43F457
:104718000003D3627B682433184600F047FE034643
:10472800FB7503E00123FB7500E000BFFB7D002B58
:104738000AD1554B9B6D23F007027B68D3F8903064
:10474800514913438B6503E0BA7DFB7D1343BB7569
:104758007B681B6803F02003002B50D07B68D3F8DC
:104768008C30B3F1005F20D0B3F1005F05D8002B87
:104778002CD0B3F1805F0AD025E0B3F1804F27D069
:10478800B3F1A04F26D0B3F1405F25D01BE03E4BDC
:10479800DB6A3D4A43F40023D3627B68043318463E
:1047A80000F084FD0346FB7517E0374BDB6A364A99
:1047B80043F08073D3627B682433184600F0F6FD1B
:1047C8000346FB7509E00123FB7506E000BF04E022
:1047D80000BF02E000BF00E000BFFB7D002B0AD154
:1047E800294B5B6D23F0E0427B68D3F88C30264977
:1047F80013434B6503E0BA7DFB7D1343BB757B68B0
:104808001B6803F04003002B53D07B68D3F8983023
:10481800B3F5006F20D0B3F5006F05D8002B2CD06E
:10482800B3F5806F0AD025E0B3F5805F27D0B3F5E4
:10483800A05F26D0B3F5406F28D01BE0124BDB6A8F
:10484800114A43F40023D3627B680433184600F00E
:104858002DFD0346FB751AE00B4BDB6A0A4A43F051
:104868008073D3627B682433184600F09FFD0346AB
:10487800FB750CE00123FB7509E000BF07E000BFF2
:1048880005E000BF03E000BF0044025800BFFB7D05
:10489800002B0AD1AE4B9B6D23F4E0527B68D3F812
:1048A8009830AB4913438B6503E0BA7DFB7D134316
:1048B800BB757B681B6803F08003002B50D07B68B6
:1048C800D3F89C30B3F5804F20D0B3F5804F05D88E
:1048D800002B2CD0B3F5005F0AD025E0B3F5004FCC
:1048E80027D0B3F5204F26D0B3F5C04F25D01BE015
:1048F800974BDB6A964A43F40023D3627B68043300
:10490800184600F0D3FC0346FB7517E0904BDB6AB2
:104918008F4A43F08073D3627B682433184600F0D3
:1049280045FD0346FB7509E00123FB7506E000BF62
:1049380004E000BF02E000BF00E000BFFB7D002BE9
:104948000AD1834B9B6D23F460427B68D3F89C307B
:104958007F4913438B6503E0BA7DFB7D1343BB7529
:104968007B681B6803F00803002B1BD07B68D3F817
:104978008030B3F5805F0BD17B682433184600F094
:1049880015FD734BDB6A724A43F08073D36209E00A
:104998006F4B5B6D23F440527B68D3F880306C49D1
:1049A80013434B657B681B6803F01003002B1BD077
:1049B8007B68D3F89430B3F5807F0BD17B682433C0
:1049C800184600F0F3FC624BDB6A614A43F08073DF
:1049D800D36209E05E4B9B6D23F440727B68D3F889
:1049E80094305B4913438B657B681B6803F4002391
:1049F800002B3CD07B68D3F8A030B3F5803F12D0B1
:104A0800B3F5003F20D0002B1BD1514BDB6A504A35
:104A180043F40023D3627B680433184600F046FC55
:104A28000346FB7511E04A4BDB6A494A43F0807341
:104A3800D3627B682433184600F0B8FC0346FB7544
:104A480003E00123FB7500E000BFFB7D002B0AD1CA
:104A58003F4B9B6D23F440327B68D3F8A0303C4930
:104A680013438B6503E0BA7DFB7D1343BB757B68FD
:104A78001B6803F48023002B36D07B68D3F884307E
:104A8800B3F5001F0CD0B3F5401F1AD0B3F5801F43
:104A980014D12F4BDB6A2E4A43F40033D36211E062
:104AA8002B4BDB6A2A4A43F40003D3627B68243326
:104AB800184600F07BFC0346FB7503E00123FB75F9
:104AC80000E000BFFB7D002B0AD1214B5B6D23F476
:104AD80040127B68D3F884301D4913434B6503E0CB
:104AE800BA7DFB7D1343BB757B681B6803F4803379
:104AF800002B33D07B68DB6C002B03D0B3F5803FF1
:104B080007D014E0124BDB6A114A43F40033D36236
:104B180010E00F4BDB6A0E4A43F40013D3627B6844
:104B28000433184600F0C2FB0346FB7502E001237C
:104B3800FB7500BFFB7D002B0CD1054BDB6C23F410
:104B480080327B68DB6C02491343CB6406E000BF0C
:104B580000440258BA7DFB7D1343BB757B681B6814
:104B680003F00053002B0FD0504BDB6A4F4A43F041
:104B78008073D3627B682433184600F017FC034621
:104B88001A46BB7D1343BB757B681B6803F400336F
:104B9800002B31D07B68DB6FB3F5807F0CD0B3F589
:104BA800807F02D8002B11D00DE0B3F5007F0FD025
:104BB800B3F5407F0ED006E03C4BDB6A3B4A43F43A
:104BC8000033D36207E00123FB7504E000BF02E075
:104BD80000BF00E000BFFB7D002B09D1334B5B6DAC
:104BE80023F440727B68DB6F304913434B6503E065
:104BF800BA7DFB7D1343BB757B681B6803F4801388
:104C0800002B08D0294B1B6D23F000427B681B6FDB
:104C1800264913430B657B681B6803F08053002B00
:104C280009D0224B1B6923F480427B68D3F8B43047
:104C38001E4913430B617B681B6803F40013002BA8
:104C480008D01A4B1B6D23F080727B689B6E174946
:104C580013430B657B681B6803F08043002B0DD062
:104C6800124B1B69114A23F4004313610F4B1A6955
:104C78007B68D3F8B8300D4913430B617B681B6818
:104C8800002B08DA094BDB6C23F040527B681B6D64
:104C980006491343CB64BB7D002B01D1002300E000
:104CA800012318461837BD4680BD00BF004402588E
:104CB80080B582B000AFFEF7B3FF01460B4B1B6A0D
:104CC80003F0700210237B607B6893FAA3F33B60C8
:104CD8003B68B3FA83F322FA03F3054AD35C21FA5B
:104CE80003F318460837BD4680BD00BF004402588C
:104CF800F0CC0008B0B588B000AF78600023BB6185
:104D080001237B6100233B610023FB604FF000031C
:104D1800BB604FF00003FB619F4B9B6A03F00303EA
:104D2800BB619D4B9B6A1B0B03F03F037B619A4B56
:104D3800DB6A03F010033B61974BDB6BDB08C3F3C3
:104D48000C033A6902FB03F31846FCF745F80346DF
:104D5800BB60BB69012B64D0012B03D3022B00F08D
:104D68008880AEE08C4B1B6803F02003002B30D00A
:104D7800894B1B68DB0803F00303884A22FA03F314
:104D8800FB60FA687B69B2FBF3F31846FCF724F87A
:104D98000446814B9B6BC3F308031846FCF71CF8C9
:104DA80005464FF08C41B868FCF722F903461946CE
:104DB8002846FBF761FF03464FF07E511846FBF784
:104DC8005BFF034619462046FCF75EF80346FB6185
:104DD8009FE0724A7B69B2FBF3F31846FBF7FCFFCE
:104DE80004466D4B9B6BC3F308031846FBF7F4FFAF
:104DF80005464FF08C41B868FCF7FAF803461946A7
:104E08002846FBF739FF03464FF07E511846FBF75B
:104E180033FF034619462046FCF736F80346FB6184
:104E280077E05F4A7B69B2FBF3F31846FBF7D4FFE0
:104E38000446594B9B6BC3F308031846FBF7CCFF9A
:104E480005464FF08C41B868FCF7D2F8034619467E
:104E58002846FBF711FF03464FF07E511846FBF733
:104E68000BFF034619462046FCF70EF80346FB6184
:104E78004FE04C4A7B69B2FBF3F31846FBF7ACFFF3
:104E88000446454B9B6BC3F308031846FBF7A4FF86
:104E980005464FF08C41B868FCF7AAF80346194656
:104EA8002846FBF7E9FE03464FF07E511846FBF70C
:104EB800E3FE034619462046FBF7E6FF0346FB617F
:104EC80027E0374A7B69B2FBF3F31846FBF784FF08
:104ED8000446314B9B6BC3F308031846FBF77CFF72
:104EE80005464FF08C41B868FCF782F8034619462E
:104EF8002846FBF7C1FE03464FF07E511846FBF7E4
:104F0800BBFE034619462046FBF7BEFF0346FB617E
:104F180000BF214B9B6B5B0A03F07F0301331846EC
:104F2800FBF75AFF03461946F869FCF761F8034690
:104F38001846FCF7F9F802467B681A60164B9B6B1B
:104F48001B0C03F07F0301331846FBF745FF0346AC
:104F58001946F869FCF74CF803461846FCF7E4F8DC
:104F680002467B685A600C4B9B6B1B0E03F07F0359
:104F780001331846FBF730FF03461946F869FCF77A
:104F880037F803461846FCF7CFF802467B689A6064
:104F980000BF2037BD46B0BD004402580090D00382
:104FA80000093D0040787D01B0B588B000AF786059
:104FB8000023BB6101237B6100233B610023FB606D
:104FC8004FF00003BB604FF00003FB619F4B9B6AEF
:104FD80003F00303BB619D4B9B6A1B0D03F03F036A
:104FE8007B619A4BDB6A03F480733B61974B5B6C84
:104FF800DB08C3F30C033A6902FB03F31846FBF71B
:10500800EBFE0346BB60BB69012B64D0012B03D3C5
:10501800022B00F08880AEE08C4B1B6803F0200365
:10502800002B30D0894B1B68DB0803F00303884A48
:1050380022FA03F3FB60FA687B69B2FBF3F31846C4
:10504800FBF7CAFE0446814B1B6CC3F308031846E2
:10505800FBF7C2FE05464FF08C41B868FBF7C8FF66
:10506800034619462846FBF707FE03464FF07E51D4
:105078001846FBF701FE034619462046FBF704FFD6
:105088000346FB619FE0724A7B69B2FBF3F3184663
:10509800FBF7A2FE04466D4B1B6CC3F308031846CE
:1050A800FBF79AFE05464FF08C41B868FBF7A0FF66
:1050B800034619462846FBF7DFFD03464FF07E51AD
:1050C8001846FBF7D9FD034619462046FBF7DCFED8
:1050D8000346FB6177E05F4A7B69B2FBF3F318464E
:1050E800FBF77AFE0446594B1B6CC3F308031846BA
:1050F800FBF772FE05464FF08C41B868FBF778FF66
:10510800034619462846FBF7B7FD03464FF07E5184
:105118001846FBF7B1FD034619462046FBF7B4FED7
:105128000346FB614FE04C4A7B69B2FBF3F3184638
:10513800FBF752FE0446454B1B6CC3F308031846A5
:10514800FBF74AFE05464FF08C41B868FBF750FF65
:10515800034619462846FBF78FFD03464FF07E515C
:105168001846FBF789FD034619462046FBF78CFED7
:105178000346FB6127E0374A7B69B2FBF3F3184625
:10518800FBF72AFE0446314B1B6CC3F30803184691
:10519800FBF722FE05464FF08C41B868FBF728FF65
:1051A800034619462846FBF767FD03464FF07E5134
:1051B8001846FBF761FD034619462046FBF764FED7
:1051C8000346FB6100BF214B1B6C5B0A03F07F03A6
:1051D80001331846FBF700FE03461946F869FBF74A
:1051E80007FF03461846FBF79FFF02467B681A60D5
:1051F800164B1B6C1B0C03F07F0301331846FBF79F
:10520800EBFD03461946F869FBF7F2FE034618461C
:10521800FBF78AFF02467B685A600C4B1B6C1B0E1F
:1052280003F07F0301331846FBF7D6FD0346194602
:10523800F869FBF7DDFE03461846FBF775FF0246E3
:105248007B689A6000BF2037BD46B0BD0044025855
:105258000090D00300093D0040787D0180B582B000
:1052680000AFFEF74DFB01460D4B9B6903F47062DE
:105278004FF480737B607B6893FAA3F33B603B68D1
:10528800B3FA83F322FA03F3064AD35C21FA03F351
:10529800054A1360044B1B6818460837BD4680BD95
:1052A80000440258F0CC00085400002080B584B0B7
:1052B80000AF78600023FB600023FB723A4B9B6AC7
:1052C80003F00303032B01D1012369E0364B1B686C
:1052D800354A23F080631360FCF738F9F86008E07A
:1052E800FCF734F90246FB68D31A022B01D90323D1
:1052F80056E02D4B1B6803F00063002BF0D12A4BBE
:105308009B6A23F47C327B681B681B032649134382
:105318008B627B685B68013BC3F308027B689B6810
:10532800013B5B029BB21A437B68DB68013B1B04B1
:1053380003F4FE031A437B681B69013B1B0603F059
:10534800FE43194913438B63174BDB6A23F0C002F2
:105358007B685B6914491343CB62134BDB6A23F008
:1053680020027B689B6910491343CB620E4B1B6874
:105378000D4A43F080631360FCF7E8F8F86008E032
:10538800FCF7E4F80246FB68D31A022B01D9032381
:1053980006E0054B1B6803F00063002BF0D0FB7A96
:1053A80018461037BD4680BD0044025880B584B009
:1053B80000AF78600023FB600023FB723A4B9B6AC6
:1053C80003F00303032B01D1012369E0364B1B686B
:1053D800354A23F080531360FCF7B8F8F86008E00A
:1053E800FCF7B4F80246FB68D31A022B01D9032351
:1053F80056E02D4B1B6803F00053002BF0D12A4BCD
:105408009B6A23F07C727B681B681B052649134343
:105418008B627B685B68013BC3F308027B689B680F
:10542800013B5B029BB21A437B68DB68013B1B04B0
:1054380003F4FE031A437B681B69013B1B0603F058
:10544800FE43194913430B64174BDB6A23F440628C
:105458007B685B6914491343CB62134BDB6A23F403
:1054680000727B689B6910491343CB620E4B1B6823
:105478000D4A43F080531360FCF768F8F86008E0C1
:10548800FCF764F80246FB68D31A022B01D9032300
:1054980006E0054B1B6803F00053002BF0D0FB7AA5
:1054A80018461037BD4680BD0044025880B582B00A
:1054B80000AF78607B68002B01D10123A8E07B68EE
:1054C8009B6C002B06D17B68002283F84420786807
:1054D80003F04AFF7B6802229A647B681B681A689B
:1054E8007B681B6822F001021A607B685A687B6837
:1054F8001B6822F070621A617B681B685A697B68B6
:105508001B6822F400425A617B681B685A697B68F1
:105518001B6822F000425A617B681B687A68126B2C
:105528005A617B681B689A687B681B6822F4004292
:105538009A607B68DB68002B12D07B681B69012BA3
:1055480007D17B68DA687B681B6842F400429A607E
:1055580006E07B68DA687B681B6842F404429A605C
:105568007B681B69022B04D17B681B684FF40062BF
:105578005A607B681B6859687B681A68264B0B431E
:1055880053607B685A697B689B6942EA03017B68C0
:10559800DB691A027B681B680A43DA607B681A6A4F
:1055A8007B685B6A1A437B689B6A1A437B68DB6A81
:1055B80042EA03017B689A687B681B680A431A60A1
:1055C8007B689B6AB3F5000F10D17B68DB6A002B00
:1055D80004D07B68DB6AB3F5001F07D17B681B68C2
:1055E8001A687B681B6842F480321A607B681B6803
:1055F8001A687B681B6842F001021A607B68002207
:10560800DA647B6801221A647B6801229A640023A9
:1056180018460837BD4680BD0080000280B582B0BC
:1056280000AF78607B681B681A687B681B6842F467
:1056380080021A607B681B684FF40052DA6180218F
:10564800786800F005F8002318460837BD4680BD85
:1056580080B485B000AF78600B467B800023FB6088
:105668007B8803F08003002B03D0FB6843F08003A2
:10567800FB607B8803F03803382B03D1FB6843F0C9
:10568800B803FB607B8803F0F203F22B03D1FB68BD
:1056980043F0F203FB607B8803F0D403D42B03D1DF
:1056A800FB6843F0F403FB607B681B6819687B6840
:1056B8001B68FA680A431A60002318461437BD4667
:1056C80080BC704780B584B000AF78600023FB6071
:1056D8000023BB607B68002B01D10123E2E07B68DB
:1056E80000229A627B681B68704A93420FD07B68DD
:1056F8001B686F4A93420AD07B681B686D4A9342C5
:1057080005D07B68DB680F2B01D90123CAE07868D4
:1057180000F0D2F8B8607B681B68644A93420CD0EA
:105728007B681B68624A934207D07B681B68614AA2
:10573800934202D0BB68082B11D87B681B685B4A70
:10574800934209D07B681B68594A934204D07B680E
:105758001B68584A934204D1BB68102B01D9012316
:10576800A0E07B6893F88130DBB2002B06D17B6820
:10577800002283F88020786804F016FE7B680222F5
:1057880083F881207B681B681A687B681B6822F095
:1057980001021A607B689B69B3F1806F10D17B6846
:1057A8005B68B3F5800F0BD17B689B6B002B07D12F
:1057B8007B681B681A687B681B6842F480521A6011
:1057C8007B68DA697B689B6A1A43FB681A437B68C3
:1057D800DB6B42EA03017B68DA687B681B680A4373
:1057E8009A607B685A6B7B685B6A1A437B689B6B21
:1057F8001A437B689B691A437B681B691A437B6859
:105808005B691A437B681B6A1A437B685B681A43A7
:105818007B68DB6C1A437B689B681A437B689B6CCC
:1058280042EA03017B689A6D7B681B680A43DA6069
:105838007B685B68002B13D17B681B689B6823F42B
:10584800C0527B681B6842F400629A607B681B68E0
:105858009B6823F4C0627B681B6842F480629A608C
:105868007B681B681A6D7B681B6822F001021A6549
:105878007B685B6803F48003002B0AD07B681B6895
:10588800DB6823F000417B685A6D7B681B680A431C
:10589800DA607B680022C3F884207B68012283F8E1
:1058A8008120002318461037BD4680BD00300140D6
:1058B80000380040003C004080B485B000AF7860FC
:1058C8007B68DB6B5B090133FB607B68DB6801335A
:1058D800BB60BB680733DB08BB60BB68FA6802FBC8
:1058E80003F318461437BD4680BC704780B582B0B4
:1058F80000AF78607B68002B01D101231DE07B6835
:1059080093F83D30DBB2002B06D17B68002283F888
:105918003C20786805F0EEF97B68022283F83D2088
:105928007B681A687B6804331946104600F0AEFDA0
:105938007B68012283F83D20002318460837BD46BE
:1059480080BD80B483B000AF78607B681B68DA687C
:105958007B681B6822F00102DA607B681B681A6AA0
:1059680041F211131340002B11D17B681B681A6A8E
:1059780040F244431340002B09D17B681B681B8805
:105988009AB27B681B6822F0010292B21A80002347
:1059980018460C37BD4680BC704780B582B000AF52
:1059A80078607B68002B01D101231DE07B6893F8A8
:1059B8003D30DBB2002B06D17B68002283F83C2007
:1059C800786800F015F87B68022283F83D207B6830
:1059D8001A687B6804331946104600F057FD7B6847
:1059E800012283F83D20002318460837BD4680BDB4
:1059F80080B483B000AF786000BF0C37BD4680BC70
:105A08007047000080B582B000AF786039607B686D
:105A18001B6800223968184601F071FA7B681B6818
:105A2800294A934213D07B681B68284A93420ED0B8
:105A38007B681B68264A934209D07B681B68254A05
:105A4800934204D07B681B68234A934201D1012307
:105A580000E00023002B17D07B681B681A6A41F20C
:105A680011131340002B0FD17B681B681A6A40F290
:105A780044431340002B07D17B681B685A6C7B6832
:105A88001B6822F400425A647B681B681A6A41F258
:105A980011131340002B11D17B681B681A6A40F25E
:105AA80044431340002B09D17B681B681B889AB2BA
:105AB8007B681B6822F0010292B21A800023184604
:105AC8000837BD4680BD00BF00000140000401400A
